:020000040800F2
:104000000000012005B30008296900082D69000897
:1040100031690008356900083969000800000000AE
:104020000000000000000000000000003D690008E2
:10403000416900080000000045690008496900085E
:1040400055B3000855B3000855B3000855B3000830
:1040500055B3000855B3000855B3000855B3000820
:1040600055B3000855B3000855B3000855B3000810
:1040700055B3000855B3000855B3000855B3000800
:1040800055B3000855B3000855B300080000000000
:1040900000000000000000000000000055B3000810
:1040A00055B3000855B3000855B3000855B30008D0
:1040B00055B3000855B3000855B3000855B30008C0
:1040C00055B3000855B3000855B3000855B30008B0
:1040D00055B3000855B3000855B3000800000000B0
:1040E00055B3000855B3000855B3000800000000A0
:1040F00000000000000000000000000055B30008B0
:104100000000000055B3000855B3000855B300087F
:10411000000000000000000000000000000000009F
:1041200055B3000855B3000855B3000855B300084F
:1041300055B300080000000000000000000000006F
:1041400000000000000000000000000059690008A5
:1041500055B3000855B3000855B3000855B300081F
:1041600055B3000855B3000800000000000000002F
:10417000000000000000000000000000000000003F
:104180000000000055B3000800000000000000001F
:0441900055B300081B
:1041C0000348044B834202D0034B03B118477047A6
:1041D00090000020900000200000000005480649E3
:1041E000091A891001EBD171491002D0034B03B1B8
:1041F0001847704790000020900000200000000049
:1042000010B5064C237843B9FFF7DAFF044B13B11E
:104210000448AFF300800123237010BD90000020FC
:104220000000000058B3000808B5044B1BB1044956
:104230000448AFF30080BDE80840CFE7000000006D
:104240009400002058B30008014B1868704700BF65
:104250000000002070B50D4E0D4D761BB61006D037
:104260000024013455F8043B9847A642F9D1094E81
:10427000094D761B07F070F8B61006D00024013403
:1042800055F8043B9847A642F9D170BD58BC0008C8
:1042900058BC00085CBC000858BC0008024B014632
:1042A000186800F0B1B800BF00000020024B0146C2
:1042B000186800F053B800BF00000020F0B4860773
:1042C00046D0541E002A3CD0CAB2034602E014F184
:1042D000FF3436D303F8012B9D07F8D1032C29D9DD
:1042E000CDB245EA05250F2C45EA054533D9A4F1A1
:1042F0001006360903F1200707EB061703F1100239
:1043000042E9045542E902551032BA42F8D1721C12
:1043100014F00C0F03EB021204F00F0613D0331F3E
:1043200023F003030433134442F8045B9342FBD1AC
:1043300006F003042CB1C9B21C4403F8011B9C42D3
:10434000FBD1F0BC704734461346002CF3D1F8E79C
:1043500014460346C2E71A462646E0E700293CD049
:1043600038B551F8043C0C1F002BB8BFE4180546C3
:1043700000F0B6FD234B1A682AB1A2420DD921687C
:104380006018824223D0626028461C60BDE8384035
:1043900000F0A8BDA34203D81A465368002BF9D1F8
:1043A00011685018A04219D024D82168601883429F
:1043B00006D0636054602846BDE8384000F092BDE6
:1043C000D3E900030144636021605460F3E7D2E95C
:1043D0000002014462602160D6E770472068014412
:1043E000501883421160E6D1D3E9000301445360C1
:1043F0001160E0E70C232B602846BDE8384000F050
:1044000071BD00BFAC000020F8B5CD1C25F0030540
:1044100008350C2D38BF0C25002D064633DBA9428C
:1044200031D82A4F00F05CFD3A6852B113685B1B2B
:1044300004D43FE023685B1B29D522465468002C36
:10444000F8D1796800293BD02946304600F0E8F8D9
:10445000431C28D0C41C24F00304A04205D0211A18
:10446000304600F0DDF801301DD02560304600F008
:1044700039FD04F10B0020F00700231DC21A01D002
:104480001B1AA350F8BD0C2232600020F8BD0B2B84
:1044900005D8A242636811D05360E7E71446236051
:1044A0001C442560E2E70C233046336000F01AFD1F
:1044B0000020F8BD0B2BF1D8536814463B60D5E7BC
:1044C000304600F0ADF87860BEE700BFAC000020D9
:1044D0000EB410B5044683B008B1836963B106A871
:1044E00003460190059AA168204600F041FD03B003
:1044F000BDE8104003B0704700F00AFCEFE700BFD2
:104500000FB410B50B4B1C6882B00CB1A36963B13A
:1045100005A803460190049AA168204600F028FDF2
:1045200002B0BDE8104004B07047204600F0F0FB38
:10453000EEE700BF0000002083692DE9F0418046CE
:104540000E4633B384682F4B9C4230D02E4B9C4296
:1045500039D02E4B9C4208BFD8F80C40A3891B07CA
:104560002AD5236943B3013EA36816F8015F013BD6
:10457000A3609DB3002B07DAA7699F422246294614
:10458000404623DC0A2D21D023685A1C22601D706E
:10459000EAE700F0BDFBD8F81830D8F80840002B47
:1045A000D1D1404600F0B4FB164B9C42CED1D8F896
:1045B0000440A3891B07D4D42146404600F068F983
:1045C0000028D0D006E0D8F80840C7E700F000F98E
:1045D0000130C9D14FF0FF30BDE8F081002B09DA7E
:1045E000224640460A2100F0F3F80130F2D00A20BA
:1045F000BDE8F08123680A22591C21601A70104618
:10460000BDE8F081B4B3000894B3000874B30008A7
:10461000024B01461868FFF78FBF00BF0000002063
:1046200038B5074C002305460846236001F0DEFB41
:10463000431C00D038BD2368002BFBD02B6038BD55
:10464000B008002000000000000000000000000092
:10465000000000000000000000000000000000005A
:10466000000000000000000000000000000000004A
:10467000000000000000000000000000000000003A
:1046800090F800F06DE9024520F007016FF0000C92
:1046900010F0070491F820F040F049804FF000043A
:1046A0006FF00700D1E9002391F840F000F1080015
:1046B00082FA4CF2A4FA8CF283FA4CF3A2FA8CF34D
:1046C0004BBBD1E9022382FA4CF200F10800A4FAB4
:1046D0008CF283FA4CF3A2FA8CF3E3B9D1E9042308
:1046E00082FA4CF200F10800A4FA8CF283FA4CF33F
:1046F000A2FA8CF37BB9D1E9062301F1200182FAF9
:104700004CF200F10800A4FA8CF283FA4CF3A2FAFE
:104710008CF3002BC6D0002A04BF04301A4612BA0C
:10472000B2FA82F2FDE8024500EBD2007047D1E90F
:10473000002304F00305C4F100004FEAC50514F09E
:10474000040F91F840F00CFA05F562EA05021CBF6F
:1047500063EA050362464FF00004A9E770B440EA3B
:104760000104A30727D1032A25D90B46064619467B
:1047700053F8045BA5F1013424EA050414F0803FEA
:1047800006D1043A032A46F8045B1946EFD882B1F1
:1047900033460C7803F8014B551E74B132442E4455
:1047A00005E011F8014FF51A03F8014B2CB19A42BC
:1047B000F7D170BC70470646E9E7002DF9D01D44DB
:1047C000002203F8012BAB42FBD170BC704700BF45
:1047D000F8B50D461446064608B1836943B3254B28
:1047E0009C422AD0244B9C4229D0244B9C4208BF97
:1047F000F468A389A269A2601A0722D5236903B3CA
:1048000022686169D31AEDB299422F4629DD01333E
:10481000A168501C0139A1602060157062699A423C
:1048200016D0A389DB0701D50A2D11D03846F8BD73
:1048300000F06EFA0F4B9C42D4D17468D9E7B4688B
:10484000D7E72146304600F023F838B92369D7E787
:104850002146304600F032F90028E7D04FF0FF370C
:10486000E4E72146304600F029F90028F6D1226815
:104870000123CDE7B4B3000894B3000874B3000873
:10488000024B0A4601461868FFF7A2BF000000204D
:104890003B4B70B51D6806460C460DB1AB69DBB1EC
:1048A000384B9C421ED0384B9C424AD0374B9C42DE
:1048B00008BFEC68B4F90C2093B2190718D5206929
:1048C00008B313F001022CD0636900225B42A3619C
:1048D000A26060B3002070BD284600F019FA294B91
:1048E0009C42E0D16C68B4F90C2093B21907E6D46D
:1048F000DD063CD5580726D4206942F00803A38181
:104900009BB20028DDD103F42072B2F5007FD8D02D
:104910003046214600F09AFAA389206913F001027B
:10492000D2D1990758BF6269A2600028D2D1B4F9E8
:104930000C301A06CFD543F04003A3814FF0FF306F
:1049400070BDAC68B6E7616B51B104F144039942A4
:1049500004D03046FFF702FDB4F90C200023636356
:1049600000232069636022F024022060C5E742F042
:104970004002092333604FF0FF30A28170BD00BFB9
:1049800000000020B4B3000894B3000874B300081A
:104990008B891A072DE9F0410C46804641D44A68BC
:1049A000002A59DDE66A002E53D00022D8F80050C4
:1049B000216AC8F8002013F4805251D101234046E7
:1049C000B047431C5FD0A389E66A216A5F0705D51B
:1049D0006268636B801A0BB1236CC01A0246002315
:1049E0004046B047461C45D1D8F80030B4F90C20F9
:1049F000002B55D01D2B01D0162B5AD12369002234
:104A0000C4E90032616BC8F8005011B304F14403EB
:104A1000994202D04046FFF7A1FC00206063BDE848
:104A2000F0810E69AEB10D680E6099070CBF636925
:104A30000023AD1BA3600AE02B463246A76A216A19
:104A40004046B8470028A5EB000506440ADD002DC6
:104A5000F2DC0020BDE8F0810A6C002AA2DCF8E755
:104A6000606DB3E7A38943F04003A3814FF0FF30AB
:104A7000BDE8F0812269A389226000226260DA0425
:104A8000C0D56065BEE7D8F80030002B9BD01D2B49
:104A90000CD0162B0AD0A38943F04003A381D9E799
:104AA0002169C4E90013D304ACD5EAE7C8F8005083
:104AB000CFE742F04002A281CCE700BF0B6923B3ED
:104AC00010B5044682B008B18369BBB1104B99425E
:104AD00012D0104B994216D00F4B994208BFE16893
:104AE000B1F90C302BB1204602B0BDE81040FFF701
:104AF0004FBF002002B010BD6168F1E7019100F0E6
:104B000007F90199E2E7A168EAE70020704700BFD2
:104B1000B4B3000894B3000874B3000820B1054B87
:104B200001461868FFF7CABF034B0449186800F034
:104B300035B900BF0000002070B30008BD4A00086E
:104B400000207047014900F029B900BFBD4A0008A4
:104B50000020704770B54A1E682505FB02F50E4619
:104B600005F17401FFF750FC044640B100210C3000
:104B7000666005F168022160A060FFF79FFB204698
:104B800070BD00BF1E4B70B51D68AB69064643B3D0
:104B90004835D5E90134013B05D51EE0013B5A1CDF
:104BA00004F1680419D0B4F90C20002AF6D10025CC
:104BB000144B6566C4E90055A560C4E90455A561B8
:104BC0002946E360082204F15C00FFF777FBC4E9A3
:104BD0000D55C4E91255204670BD2C682CB12546F0
:104BE000D7E7284600F010F8D2E704213046FFF757
:104BF000B1FF044628600028F1D10C233360EAE7B6
:104C000070B300080100FFFF2DE9F84F334B344922
:104C10001A68816290424FF00003C0E912330365C5
:104C200004BF012383610546FFF7ACFF6860284697
:104C3000FFF7A8FFA8602846FFF7A4FF6E68E860AA
:104C400000240423F3607466C6E90044B460C6E936
:104C50000444B461214606F15C000822FFF72EFBF4
:104C6000DFF888B0AF68DFF888A0DFF88890DFF859
:104C700088801C4BC6F83080C6E9086BC6E90AA9D3
:104C80002146FB6008227C66C7E90044BC60C7E996
:104C90000444BC6107F15C00FFF710FBEE68124BA7
:104CA000C7F83080C7E9087BC7E90AA92146F36045
:104CB0007466C6E90044B460C6E90444B46106F110
:104CC0005C000822FFF7FAFA0123C6E9086BC6E97F
:104CD0000AA9C6F83080AB61BDE8F88F70B3000850
:104CE000454B00080900010012000200115600089F
:104CF000395600087956000899560008024B0349B6
:104D0000186800F04BB800BF70B30008BD4A000837
:104D1000836903B978E77047704700BF704700BFE9
:104D2000704700BF704700BF024B0349186800F08E
:104D30000FB800BF00000020414B0008024B0349A0
:104D4000186800F005B800BF00000020514B0008B3
:104D50002DE9F04110F148071BD088460026D7E91D
:104D60000154013D0FD4A389012B05F1FF3506D96C
:104D7000B4F90E300133204601D0C04706436B1C06
:104D800004F16804EFD13F68002FE8D13046BDE858
:104D9000F0813E463046BDE8F08100BF2DE9F84382
:104DA00010F148071FD0884606464FF00009D7E9A2
:104DB0000154013D11D4A389012B05F1FF3508D918
:104DC000B4F90E3001332146304602D0C04749EADB
:104DD00000096B1C04F16804EDD13F68002FE6D197
:104DE0004846BDE8F883B9464846BDE8F88300BFA9
:104DF00070B50C46B1F90E10002996B016461D4646
:104E000013DB6A4600F074FC00280EDB019A02F402
:104E10007042A2F50052B2FA82F252094FF4806356
:104E200000202A60336016B070BDA38900221B06E3
:104E30002A6004D540230020336016B070BD4FF4C3
:104E400080630020336016B070BD00BF8A8992076E
:104E50000B4606D501F1470201211A60C3E904217E
:104E6000704770B582B001AB6A460C460646FFF744
:104E7000BFFF009905463046FFF7C6FAB4F90C307B
:104E800070B11649B162019A0099206043F0800325
:104E9000A381C4E904018AB92B43A38102B070BD88
:104EA0009A05FBD423F0030304F1470243F0020305
:104EB0000121A3812260C4E90421EFE73046B4F95F
:104EC0000E1000F0ADFD10B9B4F90C30E4E7A38981
:104ED00023F0030343F001031BB2DDE7454B000859
:104EE000704700BF704700BF9368013B002B936081
:104EF00011DA10B49469A34209DB0A2907D01368B8
:104F0000581C1060197008465DF8044B70475DF836
:104F1000044BFFF75DBC1368581C106019700846FD
:104F2000704700BF9BB1F8B513440F4606465D1E9F
:104F3000541E01E0AC4208D03A4614F8011F304636
:104F4000FFF7D2FF431CF5D1F8BD0020F8BD0020CB
:104F5000704700BF936810B5144613B953601846E4
:104F600010BD00F0D9FB0023C4E9013310BD00BF20
:104F70002DE9F04F9FB08B4690461C46039018B128
:104F80008369002B00F0B780A24B9B4500F0B980ED
:104F9000A14B9B4500F0C780A04B9B4504BF039BE2
:104FA000D3F80CB0BBF80C30180740F1B280DBF836
:104FB0001030002B00F0AD8030238DF8323098F89F
:104FC00000300594002120220B918DF83120944E61
:104FD0000127002B00F08780252B00F01581454626
:104FE00003E0252B00F0A38025466B786C1C002B7A
:104FF000F7D1B4EB080A76D0424653465946039897
:10500000FFF790FF01306ED00B9B6A7853440B93EF
:10501000002A68D000234FF0FF3201340693CDE917
:1050200008338DF85B301C93079205E0069A07FA67
:1050300003F313432C4606932546052215F8011B5E
:10504000304600F015FDAA46831B0028EED1069BD2
:10505000D90644BF20228DF85B2021781A0744BF6F
:105060002B228DF85B202A2966D1059A116804321B
:1050700000290592C0F29D8009916178A51C2E2916
:1050800073D0684C0322204600F0F2FC002800F0A8
:105090008680001B069B402404FA00F0034306931D
:1050A00005F10108297860488DF83010062200F0DB
:1050B000DFFC002800F083805C4B002B72D005AB36
:1050C00000935A465A4B039806A9AFF300808146D5
:1050D000B9F1FF3F07D00B9B4B440B9398F800307E
:1050E000002B7FF479AFBBF80C305B0618D40B981B
:1050F0001FB0BDE8F08FFFF70BFE464B9B457FF4DA
:1051000047AF039BD3F804B0BBF80C3018073FF54A
:105110004EAF59460398FFF7BBFB00283FF44CAF56
:105120004FF0FF30E4E7039BD3F808B03AE7B4EB65
:10513000080A3FF46FAF5FE7A1F13002092A88BF88
:10514000A2469CD8099B01E02C460135297803EB47
:10515000830302EB4303A1F13002092AAA46F3D9E3
:105160002E2904F1020509938BD19AF801102A29FE
:105170002FD1059B9AF802101A6807920433002A6F
:1051800005930AF103050AF1020338DB254C0322DB
:1051900020469A4600F06CFC00287FF47AAFA846BF
:1051A00055467FE7059B073323F007030833059334
:1051B00091E7494243F00203099106935DE705AB8D
:1051C00000935A461A4B039806A900F0D5F8814679
:1051D0007EE7A1F130020023092A079301D915E0E7
:1051E0005546697803EB830302EB4303A1F13002D8
:1051F000092A05F1010AF3D90235079341E74FF077
:10520000FF329A4607923CE7444603E7AA46013537
:1052100037E700BFB4B3000894B3000874B30008C4
:1052200014BC00081CBC000820BC000800000000E2
:10523000254F000810B4044C13460A460146206866
:105240005DF8044BFFF794BE000000202DE9F04705
:105250000C4691460A698968DDF820808A42B8BF09
:105260000A46C9F8002094F8431006461F4611B1BB
:105270000132C9F80020236899065CD5D9F80020CE
:105280000232C9F80020236813F0060F19461DD119
:10529000E1688A1A002AD8BF194617DD04F1190AF5
:1052A000002505E0E368D9F800209B1AAB420CDD2D
:1052B0000123524639463046C047013005F1010509
:1052C000F0D14FF0FF30BDE8F087216894F843300B
:1052D000003318BF01238A060AD5E1185A1C302072
:1052E00081F84300224494F8451082F843100233B9
:1052F00004F1430239463046C0470130E1D023680B
:10530000A268216903F00603042B1DD08A4226DD22
:105310004FF00009521A91441A34002501E04D451E
:105320001DDA0123224639463046C047013005F1D7
:105330000105F4D1C5E713F0060F13D094F84330FC
:10534000003318BF0123D3E7D9F80000E3688A428D
:10535000A3EB000323EAE379DCDC002BDCDC002098
:10536000BDE8F087E168D9F800208A1A002AD8BF82
:10537000194693DCAAE700BF2DE9F0430C46097EED
:1053800085B06E29064617460C98984604F1430EE0
:105390006DD039D9732900F0F68044D9752900F011
:1053A0000481782940F0118178232268DFF858C2FF
:1053B00084F845300168150651F8043B016040F15E
:1053C000A180D10744BF42F020022260002B00F0F0
:1053D00093801022002184F843106068A0600028A8
:1053E000C0F2C880216821F004012160002B40F048
:1053F000A380002840F0C0807546082A00F0AC80E9
:10540000AEEB0503236141E0632900F0E5801AD883
:10541000002938D0582940F0D88084F845102268F7
:10542000DFF8E8C1C6E76F2900F0BF80702940F0BF
:10543000CC802268DFF8D0C142F0200278232260BD
:1054400084F84530B6E7642902D0692940F0BD8070
:1054500022680368110603F1040557D51968056031
:105460000B46002959DBDFF8A4C10A22B5E703681F
:10547000226861691D1D056015061B6802D450066F
:1054800000F1BD801960002375462361CDF80080CE
:105490003B4603AA21463046FFF7D8FE013020D014
:1054A0002A46236939463046C047013019D0226860
:1054B0000398E368920719D51A1A002A16DD04F139
:1054C0001909002504E0E36803981A1AAA420DDDC1
:1054D00001234A4639463046C047013005F10105EF
:1054E000F1D14FF0FF3005B0BDE8F0839842B8BF6E
:1054F000184605B0BDE8F083226822F02002226041
:10550000102267E7500648BF9BB25AE75106A5D55F
:10551000B3F9003005601946A3E76168A1602D204A
:105520000029C3F1000384F8430002DB22F00402E7
:105530002260DFF8D8C00A22754600E00B46B3FBB4
:10554000F2F102FB113093421CF8000005F8010D46
:10555000F4D2082A7FF454AF2368DB077FF550AFFD
:10556000626823699A423FF74BAF302305F8013C4C
:10557000013D45E7002BDFD19CF8003084F8423034
:1055800004F1420539E703686268191D01601D686E
:105590000021284600F06CFA002832D0401B6060E1
:1055A0002061002384F8433070E72268036812F01A
:1055B000800F03F104051AD01B6805606F290CBF2A
:1055C00008220A22DFF844C004E7012384F84210CD
:1055D000236104F14205E4E703681A68191D0123F9
:1055E000016004F1420584F842202361D9E712F0FA
:1055F000400F0DBF1B6805601B880560DEE7198042
:1056000041E76068CCE700BF3CBC000828BC00084C
:1056100010B50C46B1F90E1000F0A2FB002803DB18
:10562000636D0344636510BDA38923F48053A38194
:1056300010BD00BF002070472DE9F0411646B1F9BA
:105640000C201F46D3050C460546B1F90E1009D4AF
:1056500022F48052A2813B4632462846BDE8F04102
:1056600000F01EB80022022300F0ECF9B4F90C207F
:10567000B4F90E10ECE700BF10B50C46B1F90E10EE
:1056800000F0E0F9A389421C0EBF23F4805343F4D9
:1056900080536065A38110BDB1F90E1000F016B8FB
:1056A00070B50D46084C114606461A46284600239A
:1056B000236001F0D5F9431C00D070BD2368002B96
:1056C000FBD0336070BD00BFB008002038B5074C78
:1056D000002305460846236000F060FB431C00D011
:1056E00038BD2368002BFBD02B6038BDB0080020EC
:1056F00038B50B46074C0546114618460023236073
:1057000000F054FB431C00D038BD2368002BFBD0B5
:105710002B6038BDB00800209368002B00F0028198
:105720002DE9F04FB1F90C309BB20C46190783B04C
:105730008246904635D522699AB313F00202D8F812
:1057400000603DD00027D4F828B0D4F820C0DFF89E
:10575000CC923D464D452B463A4628BF4B466146C6
:105760005046D5B1D847002840F3D280D8F8083049
:105770001B1A07442D1AC8F80830002B00F0B78018
:10578000D4F820C0D4F828B04D452B463A4628BF5F
:105790004B4661465046002DE4D1D6E900750836E7
:1057A000D8E721465046FFF773F8002840F03081D3
:1057B000B4F90C30D8F800609BB213F00202C1D1EA
:1057C00013F0010940F0B080A76820684D46002D15
:1057D00054D09A0540F1BC80AF42BB4600F2E7804E
:1057E00013F4906F2FD0D4E9041707EB4707A0EB11
:1057F000010B07EBD777681C7F105844B8423A4634
:1058000084BF07463A465B0540F1E98011465046A1
:10581000FEF7FAFD002800F0F5805A462169019054
:1058200000F076F9A289019B22F4906242F0800296
:10583000A281A7EB0B0203EB0B00676123612060E1
:10584000A2602F46AB465A46494600F0FBF9A268D3
:105850002368D21B5B442F46A26023600025D8F842
:105860000830DB1BB944C8F80830002B3FD0B4F92E
:105870000C30A76820689BB2002DAAD1D6E900950C
:105880000836A4E70BF1080353E902679B46083387
:10589000002FF9D03A460A21304600F0E9F80028F6
:1058A00053D00130A0EB06094B46D4E9041220681E
:1058B000BB4228BF3B46884203D9A5681544AB428A
:1058C00019DC9A427DDC1346A56A216A32465046AD
:1058D000A847051E1CDDB9EB05096BD00120D8F8DF
:1058E00008305B1B2E447F1BC8F8083013BB002018
:1058F00003B0BDE8F08F31462A4600F0A3F92368D3
:105900002B44236021465046FFF7D8F80028E2D008
:10591000B4F90C3043F040034FF0FF30A38103B0E3
:10592000BDE8F08F00207047334691461046174679
:105930004E469B46002FA5D00028B5D13A460A21F5
:10594000304600F095F80028ABD17B1C9946ACE7B7
:105950002369834215D36169A94212D82E4BA76AE5
:105960009D4294BF2B466FF000434A4693FBF1F3F0
:10597000504601FB03F3216AB847071EC8DDED1B43
:105980006DE7AF4228BF2F463A46494600F05AF924
:10599000A3682268DB1B3A44A3602260002BEED18F
:1059A00021465046FFF78AF80028E8D0B0E72F4696
:1059B000AB4648E721465046FFF780F800288ED0D6
:1059C000A6E71A463146019300F03CF9019BA16815
:1059D0002268C91A1A44A16022601D467BE750461E
:1059E00000F098F9034600287FF423AF2169504660
:1059F000FEF7B4FCB4F90C300C2223F08003CAF893
:105A0000002087E70C23CAF80030B4F90C3081E796
:105A10004FF0FF306CE700BFFEFFFF7F00FCFF7F11
:105A200038B5074C002305460846236000F0C6F948
:105A3000431C00D038BD2368002BFBD02B6038BD41
:105A4000B008002070B50D46084C114606461A46AF
:105A500028460023236000F0B9F9431C00D070BD34
:105A60002368002BFBD0336070BD00BFB00800205E
:105A700001F0FF01102A2BDB10F0070F08D010F8FF
:105A8000013B013A8B422DD010F0070F42B3F6D103
:105A9000F0B441EA012141EA014122F007047FF01C
:105AA00000070023F0E80256083C85EA010586EA73
:105AB000010685FA47F5A3FA87F586FA47F6A5FAAF
:105AC00087F68EB9EED1F0BC01F0FF0102F00702BB
:105AD00032B110F8013B013A83EA010313B1F8D166
:105AE0000020704701387047002D06BF3546033847
:105AF000073815F0010F07D1013015F4807F02BF80
:105B0000013015F4C03F0130F0BC0138704700BFD0
:105B1000844641EA000313F003036DD1403A41D3B8
:105B200051F8043B40F8043B51F8043B40F8043B77
:105B300051F8043B40F8043B51F8043B40F8043B67
:105B400051F8043B40F8043B51F8043B40F8043B57
:105B500051F8043B40F8043B51F8043B40F8043B47
:105B600051F8043B40F8043B51F8043B40F8043B37
:105B700051F8043B40F8043B51F8043B40F8043B27
:105B800051F8043B40F8043B51F8043B40F8043B17
:105B900051F8043B40F8043B51F8043B40F8043B07
:105BA000403ABDD2303211D351F8043B40F8043BA7
:105BB00051F8043B40F8043B51F8043B40F8043BE7
:105BC00051F8043B40F8043B103AEDD20C3205D3B7
:105BD00051F8043B40F8043B043AF9D2043208D0AF
:105BE000D2071CBF11F8013B00F8013B01D30B8821
:105BF00003806046704700BF082A13D38B078DD0FF
:105C000010F003038AD0C3F10403D21ADB071CBFD0
:105C100011F8013B00F8013B80D331F8023B20F83A
:105C2000023B7BE7043AD9D3013A11F8013B00F873
:105C3000013BF9D20B7803704B7843708B788370FB
:105C4000604670478842F0B40DD98B1883420AD958
:105C5000841832B1224613F8014D02F8014D9942E1
:105C6000F9D1F0BC70470F2A0ED80346541E002A03
:105C7000F7D001340C44013B11F8012B03F8012F3C
:105C8000A142F9D1F0BC704740EA01039B073BD128
:105C9000A2F110073F0901F1200606EB071601F1FA
:105CA000100300F1100453F8105C44F8105C53F832
:105CB0000C5C44F80C5C53F8085C44F8085C53F83E
:105CC000045C44F8045C1033B34204F11004EAD1DC
:105CD0007B1C1B0112F00C0F194402F00F0503444A
:105CE00015D0043DAD0803EB850C1C1F0E4656F87D
:105CF000047B44F8047F6445F9D10135AD002B44A1
:105D0000294402F00302B1E7541E0346B1E72A46D4
:105D1000ACE700BF09B3F8B51446CAB106460D4654
:105D200000F034F8A04202D32F463846F8BD214691
:105D30003046FEF769FB07460028F6D02246294682
:105D4000FFF7E6FE30462946FEF708FB3846F8BD69
:105D50002746FEF703FB3846F8BD1146FEF754BB55
:105D600070B50D46084C114606461A4628460023D3
:105D7000236000F033F8431C00D070BD2368002B73
:105D8000FBD0336070BD00BFB008002051F8043C68
:105D9000181F002BBCBF0B58C0187047024B58226D
:105DA0001A604FF0FF307047B0080020024B5822B5
:105DB0001A604FF0FF307047B0080020024B5822A5
:105DC0001A600020704700BFB0080020024B582224
:105DD0001A604FF0FF307047B0080020024B582285
:105DE0001A604FF0FF307047B0080020044A0549A0
:105DF0001368002B08BF0B46184410601846704704
:105E0000B4000020B808002053B94AB9002908BFDF
:105E100000281CBF4FF0FF314FF0FF3000F074B985
:105E2000ADF1080C6DE904CE00F006F8DDF804E0F1
:105E3000DDE9022304B070472DE9F047089E0446CF
:105E40008846002B40F085808A42154648D9B2FA30
:105E500082F24AB1C2F1200701FA02F320FA07F7F1
:105E6000954047EA030894404FEA154E230CB8FBCF
:105E7000FEF71FFA85FC0EFB178843EA084307FB71
:105E80000CF1994209D9EB1807F1FF3080F0E3805B
:105E9000994240F2E080023F2B445B1AA4B2B3FB6C
:105EA000FEF00EFB103344EA034400FB0CFCA44557
:105EB00009D92C1900F1FF3380F0CB80A44540F2C2
:105EC000C88002382C4440EA0740A4EB0C040027A9
:105ED0001EB1D4400023C6E900433946BDE8F0872F
:105EE000002A53D0B2FA82F2002A40F0B680491B51
:105EF0004FEA154E1FFA85F80127B1FBFEFC230C73
:105F00000EFB1C1143EA014308FB0CF1994207D92F
:105F1000EB180CF1FF3002D2994200F2EC8084467B
:105F2000591AA3B2B1FBFEF00EFB101443EA04446D
:105F300008FB00F8A04507D92C1900F1FF3302D265
:105F4000A04500F2DC801846A4EB080440EA0C40AF
:105F5000BEE78B4208D9002E78D00027C6E90001A1
:105F600038463946BDE8F087B3FA83F77FB98B42EC
:105F700002D3824200F2BD80841A61EB0303012048
:105F80009846002EA9D0C6E90048A6E7FFDEC7F173
:105F90002005BB4022FA05FC4CEA030C01FA07F489
:105FA00020FA05F821FA05F34FEA1C4E48EA0404EA
:105FB000B3FBFEF9210C0EFB19331FFA8CF841EAF2
:105FC000034309FB08FA9A4502FA07F200FA07F1BF
:105FD0000BD91CEB030309F1FF3080F088809A4550
:105FE00040F28580A9F102096344A3EB0A03A4B23D
:105FF000B3FBFEF00EFB103344EA034400FB08F849
:10600000A04508D91CEB040400F1FF336BD2A04576
:1060100069D90238644440EA0940A4EB0804A0FBB3
:1060200002894C45C6464B4654D351D0002E69D008
:10603000B1EB0E0264EB030404FA05F522FA07F350
:10604000FC401D43C6E90054002746E7374630466A
:1060500043E7184637E707461FE7C2F1200320FA57
:1060600003F7954001FA02F021FA03F34FEA154EC7
:106070003843010CB3FBFEF71FFA85F80EFB17330C
:1060800041EA034107FB08F38B4204FA02F407D903
:10609000691807F1FF3C28D28B4226D9023F2944D8
:1060A000CB1A81B2B3FBFEF00EFB103341EA034181
:1060B00000FB08F38B4207D9691800F1FF3C10D2AE
:1060C0008B420ED902382944C91A40EA074714E71F
:1060D0004145ABD2B8EB020E69EB0C020138134616
:1060E000A4E76046F0E7184695E76746D8E781469B
:1060F0007BE7384645E7ACF1020C2B4410E7023849
:106100002C4421E73746E8E6704700BF70B584B0FD
:106110008DF80F1070B105460624012600960DF18A
:106120000F0300220221284604F018FD20B9013C8B
:10613000002CF3DC04B070BD002CEFDC04B070BDAB
:1061400010B310B507210446FFF7E0FFFA2000F076
:10615000C9FC00212046FFF7D9FF7D2000F0C2FCDA
:1061600007212046FFF7D2FFFA2000F0BBFC0021F8
:106170002046FFF7CBFF7D2000F0B4FC2046002135
:10618000BDE81040FFF7C2BF704700BF2DE9F04FD8
:10619000AC4FAD4E99B03946002000F057FC03F0EB
:1061A000E3FA00210491336CA84A43F08050306434
:1061B000346C04F080550495049B0591116821F41A
:1061C000404848F400431360126802F440400590D0
:1061D0004FF0040901244FF480354FF0020A4FF4C8
:1061E000800B0599CDF85090A82107230CA8CDE984
:1061F0000C45CDE912ABCDE91519179302F05EFEFF
:1062000000B1FEE70F220223CDE906230A90002207
:106210004FF48053514606A8CDE9082303F03EF819
:10622000054600B1FEE703F0D7F84FF47A72B0FBF1
:10623000F2F003F049FA484603F060FA2A4629468C
:106240004FF0FF3003F0FEF9CDE90C55CDE90E55C6
:1062500002951095316B7E4841F080033363326BB9
:1062600002F080010291029B0395336B43F001021F
:106270003263316B01F001030393039B0695326B8C
:1062800042F002013163366B06F0020306932246A8
:106290002146069B03F0C0F9224651466C4803F0A4
:1062A000BBF94FF00308002200230CA968484FF007
:1062B0000109CDE90E23CDE90C8903F0B7F8654952
:1062C000BD604FF4E13C0C223846C7E90355C7E9ED
:1062D0000655C7E9001C7A6102F016FD0646002843
:1062E00040F089803946204600F0B0FB00F03AFDCE
:1062F0005948DFF898A1594FDFF85481DFF890B181
:10630000FEF786F95648FEF7FBF856495648FEF761
:10631000F7F85648FEF77CF95548FEF779F900F092
:10632000C3FB00F07DFD304600F01AFD354600F05D
:106330004DF9019628E00CB100F0B6FB4FF4FA706D
:1063400000F0BAFB0446002856D03868B0FA80F353
:106350005C092246012140463C6003F05DF900F0F3
:10636000A3FB0A2E4ADD5846FEF7CAF8414A4249C5
:106370004248FEF7C5F84248FEF7C2F80026354607
:106380003446284600F0ECFC00F036F900F03AF90B
:106390000228D0D100F03CF9814698B304F0F0FB1C
:1063A000022877D0002C00F0D480642000F084FB19
:1063B0000546F0B13868B0FA80F35C092246012145
:1063C00040463C6003F028F92E4800F0B1FE00F092
:1063D0006BFB0A2E40F3B9805846FEF791F8254A28
:1063E00025492948FEF78CF82548FEF789F800264C
:1063F00035460124C5E7FEE70546C2E7002501361C
:106400002C46BEE7002C00F0A780FA2000F054FBD9
:1064100005460028EDD03968B1FA81F255092A46BF
:10642000012140463D6003F0F7F800F03DFB0A2EE5
:1064300040F38B805846FEF763F80E4A0E490F482A
:10644000D0E700BFB80000200038024000700040D4
:106450000000024000440040DCB30008FC000020C3
:1064600014B400081CB4000840B400084CB4000880
:10647000D4B40008D4B3000890B40008E0B4000815
:10648000D8B4000854B400089CB40008F8000020F8
:1064900088B400080CB900F007FB8DB92A46012129
:1064A000404603F0B9F84FF4FA7000F005FB0546DA
:1064B00030B14846FFF744FE00218AF8001001255C
:1064C000484600F0A9F8002849D100F0CDF800F0C6
:1064D000CDFC411E06298CD8DFE801F03029221BB3
:1064E000140904004846FFF72BFE012449E79AF8F7
:1064F000003003F0FB018AF800104846FFF706FE63
:1065000001243EE79AF8002002F0FE018AF800100C
:10651000F3E79AF8004004F0FD018AF80010ECE778
:106520009AF8000040F004018AF80010E5E79AF8B4
:1065300000E04EF001018AF80010DEE79AF800C092
:106540004CF002018AF80010D7E70136002501243B
:1065500017E700F0A9FA28E700F0A6FA55E700F0DF
:1065600077FC70B1019A8AB14FF4FA7000F0A4FA86
:1065700048B100F023FC00200190012400F050FC01
:10658000FFE6019035E701240194FAE600F08CFA69
:10659000EAE700BFFEE700BF0139042910D8DFE8B1
:1065A00001F0030B0F070300074B03221A7070471B
:1065B000054B01221A707047034802210170704791
:1065C00001480021017070470001002010B5074C00
:1065D00007492046012203F005F92046054903F04A
:1065E0002FF92046BDE8104003F076BA04010020E0
:1065F0009965000870000020014803F077BA00BFD9
:1066000004010020014B1878704700BF00010020F2
:10661000004870470401002008B504F08DFDE8B182
:10662000104B42781A6081789960C2781A610179BA
:10663000996142791A6281799962C2791A63017A01
:106640009963D0F80910196490F80DE083F844E0DC
:1066500090F80EC083F845C0002008BD4FF0FF3011
:1066600008BD00BF400500200048704740050020DD
:10667000D0B50368B3F1A04F88B00CD01A48FDF72D
:106680003FFF1A4A1A491B48FDF73AFF1A48FDF71F
:1066900037FF08B0D0BD0022032302A94FF4C05633
:1066A00002270A2415480694CDE90267CDE90423A0
:1066B00002F0BCFE1248416B002241F080064663A6
:1066C0000192476C47F480434364446C04F4804077
:1066D000019011464320019B02F0B4FF432002F0D9
:1066E000E7FF08B0D0BD00BF24B5000830B60008F1
:1066F0002CB500083CB50008D8B4000800000240E2
:1067000000380240D0F8940203F0E2BBD0F89402C3
:1067100003F0EEBBD0F8940203F000BC704700BF5A
:1067200038B590F83034012B044628D11E48FDF7C7
:10673000E7FE1E4A1E491F48FDF7E2FE1E48FDF710
:10674000DFFE1E4BC4F834344FF0A040082203256E
:10675000022118609A6018460022C3F89442DD6056
:1067600099611A61DA6100F023FEB8B9134801F0AB
:10677000B7FA0146204603F0A7FB002038BD1048B9
:10678000FDF7BEFE94F83034084A09490D48FDF77C
:10679000B7FE0948FDF7B4FE002038BDA521044826
:1067A000FFF7F8FEE2E700BF88B4000840B6000833
:1067B0002CB50008A4B50008D8B40008F0050020E6
:1067C00024B50008DCB5000808B5D0F8340401F0A1
:1067D00053FA022896BF024B0220185C08BD00BF86
:1067E0001CB5000808B5D0F8340401F05BFA0228A3
:1067F00096BF024B0220185C08BD00BF1CB5000804
:1068000008B5D0F8340401F06FFA022896BF024BA5
:106810000120185C08BD00BF20B5000808B5D0F8FD
:10682000340401F051FA022896BF024B0220185C92
:1068300008BD00BF1CB5000830B585B0D0F83404E1
:106840009DF82450BDF828C09DF820400094CDE963
:10685000015C00F063FD02289ABF024B185C022025
:1068600005B030BD1CB5000808B5D0F8340400F000
:106870008DFD022896BF024B0220185C08BD00BFA8
:106880001CB5000830B585B0D0F834049DF8205010
:106890000095BDF828C09DF82C50099C0194CDE9C5
:1068A00002C500F0C5FD18B102280CBF012002206E
:1068B00005B030BDD0F8340401F00ABA10B590F834
:1068C0003034012B0DD004460848FDF719FE94F82A
:1068D0003034074A07490848FDF712FE0748FDF71C
:1068E0000FFEC82002F06CFF002010BD24B5000888
:1068F00050B600082CB5000870B50008D8B40008E0
:10690000D0F8343401EB810103EBC10090F83B3047
:106910001BB180F850200020704780F851200020E3
:10692000704700BF02F04CBF704700BFFEE700BFDA
:10693000FEE700BFFEE700BFFEE700BF704700BFF5
:10694000704700BF704700BF08B502F027FFBDE8E1
:10695000084002F0E1BE00BF014800F0F1BD00BFF9
:10696000F005002010B582B00024224B00945A6C30
:1069700042F480405864596C01F480420092009ABD
:106980000194186C40F0805119641B6C03F0805224
:1069900001920320019B02F043FE224621466FF044
:1069A0000B0002F04FFE224621466FF00A0002F073
:1069B00049FE224621466FF0090002F043FE2246BE
:1069C00021466FF0040002F03DFE224621466FF0A2
:1069D000030002F037FE224621466FF0010002F06C
:1069E00031FE224621464FF0FF3002B0BDE8104094
:1069F00002F028BE003802400268124B9A4200D0D2
:106A0000704770B586B003F5FA31002000900C6C29
:106A10000D4844F400350D640E6C0C2106F4003270
:106A200000924FF0020C4FF0010E07230191032456
:106A300001A9009ECDE902CECDE9044302F0F6FCA7
:106A400006B070BD004400400000024019B1024A87
:106A5000024B1070196070479405002090050020CB
:106A60000138012810B513D80D4B1C78012C01D02A
:106A7000002010BD0B4800680028F9D014464FF4E0
:106A80007A7392B202F072F90028F1D1204610BD5B
:106A9000FDF7DAFB092101604FF0FF3010BD00BFA8
:106AA000940500209005002008B502F083FE014BFC
:106AB000186008BD8C05002010B5044602F07AFE6F
:106AC000034B19680C4484428CBF0020012010BD88
:106AD0008C05002028B100010046A0F1010000282B
:106AE000FBD1704702F06CBE0F49104BD1F88820E3
:106AF00042F4700030B4C1F888001A680C4D0D4C97
:106B0000002042F001021A6098601A6822F0847C2A
:106B10002CF480321A605D601D6825F480221A60B2
:106B2000D8608C6030BC704700ED00E00038024057
:106B30001030002400400008234A1178814208BF29
:106B400000233CD0012312F813C0844537D0013311
:106B500010B412F81340844219462AD0013312F8B7
:106B600013C0844525D08B1C12F81340844220D0DA
:106B7000CB1C12F813C084451BD00B1D12F8134018
:106B8000844216D04B1D12F813C0844511D08B1DC2
:106B900012F8134084420CD0CB1D792B0CD012F884
:106BA0001310814205D00133194612F81340844274
:106BB000D4D102EB430358785DF8044B704702EBE5
:106BC00043004078704700BFB8B7000830B50128CF
:106BD00087B00BBF012000200024012469460C224D
:106BE0000023029009480393CDE90024012502F017
:106BF0001DFC02240022002369460448CDE900451B
:106C0000CDE9022302F012FC07B030BD00080240BB
:106C10006228F8B578D068280FD01C286ED0C943F8
:106C20004A4F01F0010242EA40003E78C4B2A64257
:106C30004FF000050FD12846F8BD454B1D78002DBB
:106C40007AD1002966D00225CE4306F0010343EA3B
:106C500040043E4FE4B200203C70FFF7B7FF3D48D0
:106C600001220646082102F0D7FC00220821304606
:106C700002F0D2FC1420FFF72DFF0122082130463C
:106C800002F0CAFC6420FFF725FF082723064FF017
:106C900001024FF0080148BF0022304602F0BCFC60
:106CA00061001420CCB2FFF715FF0022042130460A
:106CB00002F0B2FC1420FFF70DFF01220421304640
:106CC00002F0AAFC1420FFF705FF013FDED10122EC
:106CD0000821204802F0A0FC0120FFF777FF0520E3
:106CE000FFF700FF012208211A4802F095FC01225B
:106CF0000421184802F090FC2846F8BD164B1D7878
:106D00006DB939B103259FE7144B1D78CDB909B191
:106D1000012599E70D48012205701A708BE739B9F2
:106D200019700625440044F00107FCB2074F92E7B2
:106D3000064900250D707EE70029F9D11970052557
:106D4000F0E70029F4D1197004257DE768000020E0
:106D50009C05002000080240EC050020950500205D
:106D6000704700BF30B589B0124B134C0025019518
:106D70001A6B42F004001863196B01F004030193CD
:106D8000204601220E21019B02F046FC0E22012327
:106D9000CDE902232046002302A90022CDE90423E5
:106DA00002F044FB2A462046022102F035FC09B0DD
:106DB00030BD00BF003802400008024038B5134C17
:106DC0000020FFF703FF20460022022102F024FCEE
:106DD00020460022042102F01FFC4FF41670FFF73A
:106DE00081FE20460122022102F016FC20460122EB
:106DF000042102F011FC064C06480749074A00230B
:106E0000FF25257003700B70137038BD0008024019
:106E100068000020950500209C050020EC0500205E
:106E200008B5FFF7CBFF0020FFF7D0FE4FF47A70D4
:106E3000FFF758FE0021FD20FFF7EAFEC820FFF70C
:106E400049FE0021FE20BDE80840FFF7E1BE00BF7B
:106E500008B50120FFF7BAFE0421034802F0D6FB73
:106E6000B0FA80F0400908BD000802402DE9F8435F
:106E7000A74D8368AA689A42074600F03281A3F1C1
:106E80000104B4FA84F04609E120C5E90236FFF7AF
:106E900053FE3146FFF7BCFE044639692B698B422D
:106EA00000F01C81A1F10102B2FA82F04609E22051
:106EB000C5E90416FFF740FE3146FFF7A9FE6969F0
:106EC000DFF8688204430129E4B2D8F8003000F00A
:106ED000E980002BC4BF03F1FF33C8F800303968E4
:106EE0002A688A421AD0A1F10100B0FA80F6760928
:106EF000E020C5E90016FFF71FFE3146FFF788FEC8
:106F00006B68D8F800100443012BE4B200F0EB806A
:106F10000029C4BF01F1FF31C8F80010BB69AA699C
:106F20009A421AD0A3F10100B0FA80F67609E32064
:106F3000C5E90636FFF700FE3146FFF769FEE9694D
:106F4000D8F8003004430129E4B200F0D080002BCF
:106F5000C4BF03F1FF33C8F80030B96AAA6A8A4295
:106F60000ED0A1F10100B0FA80F67609E520C5E95E
:106F70000A16FFF7E1FD3146FFF74AFE0443E4B28B
:106F80003B6B296B99421AD0A3F10102B2FA82F04D
:106F90004609E620C5E90C36FFF7CEFD3146FFF77E
:106FA00037FE6B6BD8F800100443012BE4B200F0FD
:106FB000A2800029C4BF01F1FF31C8F800103B6A6C
:106FC0002A6A9A421AD0A3F10100B0FA80F6760933
:106FD000E420C5E90836FFF7AFFD3146FFF718FE9C
:106FE000696AD8F8003004430129E4B200F08780D0
:106FF000002BC4BF03F1FF33C8F80030B96BAA6B94
:107000008A4219D0A1F10100B0FA80F67609E72092
:10701000C5E90E16FFF790FD3146FFF7F9FDED6B60
:10702000D8F800300443012DE4B26CD0002BC4BF6B
:1070300003F1FF33C8F80030364D403705F106093B
:1070400015F801CF17F8016BB44511D0A979B1FA41
:1070500081F253093046AB7146BB6046FFF76CFDC9
:107060003146FFF7D5FD17F8016C0443E4B22E70EA
:10707000A945E5D1D8F80070022F10DD2648FDF7AC
:107080003FFA264A26492748FDF73AFA00242648BF
:10709000FDF736FAFFF792FEC8F8004007242046B5
:1070A000BDE8F8830133C8F8003018E7FFF744FD66
:1070B0000121FFF7ADFD17F8016C04434C2EE4B23B
:1070C000D8F8000006D00028C4BF00F1FF30C8F88F
:1070D0000000CCE70130C8F80000C8E7DFF84C80BA
:1070E000FDE60024D9E60131C8F8001016E70133A7
:1070F000C8F8003031E70131C8F800105FE701330C
:10710000C8F800307AE70133C8F8003094E700BFD0
:10711000A0050020DF05002088B400087CB6000828
:107120008CB6000898B60008D8B40008980500206E
:10713000002800F0EF802DE9F8430746FDF7A0FA9C
:107140000446FDF7ABF88146002800F0CF802246C8
:107150003946FDF703FB99F8000060B14A46A0F1FB
:107160006103192BA0F1200100F2CE80117012F8FA
:10717000010F0028F3D1E120FFF7DEFC0121FFF72A
:1071800047FD3846FDF77CFA09F1FF36C9F10108E1
:1071900008EB0604A042604D40F29D8016F8014FB6
:1071A00095F801C0A4454FF0000318BF012300F07B
:1071B000A88005EB430E9EF80120A24200F0A180BA
:1071C000013305EB430118464A78A24200F099804A
:1071D000013305EB430C9CF801E0A64500F09180DB
:1071E000831C05EB43014A78A24200F08A80C31C4D
:1071F00005EB430C9CF801E0A64500F08280031DDE
:1072000005EB43014A78A2427BD0431D05EB430CBA
:107210009CF801E0A64574D0831D05EB43014A7834
:10722000A2426ED0C31D792BC3D12046FFF784FC48
:107230000121FFF7EDFC6878A0424FF0000318BF72
:10724000012355D005EB430C9CF80110A1424FD00F
:10725000013305EB430E1A469EF80100A04247D0C9
:10726000013305EB430C9CF80110A14240D0931C64
:1072700005EB430E9EF80100A04239D0D31C05EB6C
:10728000430C9CF80110A14232D0131D05EB430EB4
:107290009EF80100A0422BD0531D05EB430C9CF837
:1072A0000110A14224D0931D05EB430E9EF801006E
:1072B000A0421DD0D31D792BC4D12046FFF73CFC42
:1072C0000021FFF7A5FC3846FDF7DAF908EB0604C4
:1072D000A0423FF663AFE120FFF72EFC0021FFF74D
:1072E00097FC4846BDE8F843FCF7E0BFBDE8F883EB
:1072F00015F813402046FFF71FFC0021FFF788FC1C
:10730000E1E715F8130091E712F8010F00287FF468
:1073100026AF30E7704700BFC4B600082DE9F0473C
:1073200090F8904284B0012C9DF830E09DF83480B4
:10733000BDF8389026D0054601EB810005EBC0046E
:10734000D60902F07F004FF0010A85F890A284F878
:10735000383084F8391084F83F8084F83CE084F8B1
:107360003A0084F83B60A4F840902868CDF800E02B
:10737000CDE9018901F0F5FA002385F8903204B0D7
:10738000BDE8F087022004B0BDE8F08790F89032A5
:10739000012B0BD010B50446012084F89002206820
:1073A00000F0EFFD002084F8900210BD022070472D
:1073B00000283AD02DE9F041032307468AB080F82F
:1073C00091320446FFF754F9386801F02EF854F86A
:1073D000106B0FCC6D460FC50FCC0FC594E80300A2
:1073E00085E8030007F1040898E80E0030463E46A1
:1073F00000F066FF0121386801F01EF856F810CB46
:107400000FCE6D460FC50FCE0FC594E8030085E87B
:107410000300604698E80E0001F030F9012087F87B
:10742000910200200AB0BDE8F0810120704700BF42
:10743000F0B58C009DF814C0069FBDF81C6065185F
:1074400000EBC505BCF1000F14BF4FF0020E4FF06A
:10745000030E85F83B2085F83F3085F842E09DF823
:107460002050032B1AD8DFE803F0024D3931BCF16C
:10747000010F13D192B9621800EBC20E002E58D141
:1074800002228EF851C0631800EBC30E9EF85C30E8
:107490008EF84220022B01D08EF83D500C4400EBB8
:1074A000C4054FF0280C85F8391000230CFB0101AE
:1074B000027C006885F85C30C5E91176EB6485F8DC
:1074C0005D303831BDE8F04000F012BC631800EBCD
:1074D000C30C4ABB9CF8515015BB17E0CAB96218DF
:1074E00000EBC20292F851C092F85CE0BCF1000FD0
:1074F00008BF6346BEF1020F82F84230CED082F858
:107500003D50CBE7631800EBC30C00228CF84220FF
:10751000C4E7621800EBC20C9CF85020002AF5D09A
:1075200002258CF84250B9E79CF85020002AF7D188
:10753000ECE79EF85120002A18BF0222A3E700BF03
:107540002DE9F04F056885B00446284601F092F811
:10755000012802D005B0BDE8F08F206801F086F860
:107560000028F7D0206801F081F810F4001F20688F
:107570001CBF4FF40013436101F078F810F4801F32
:1075800020681CBF4FF48011416101F06FF810F0CA
:10759000806F20681CBF4FF08062426101F066F886
:1075A00010F0020F20681CBF0226466101F05EF851
:1075B000870000F1EF80206801F058F8C60100F163
:1075C000AE80206801F052F8000700F1F5802068D5
:1075D00001F04CF810F0007F206813D101F046F85C
:1075E000C306B7D52568AE6926F01000A8612F6ADA
:1075F000C7F34343022B00F0A681AC6944F01000AE
:10760000A861A7E700F0AEFCA168824620680029C7
:1076100000F0818005F5A06500264FF0010937E0F4
:10762000590751D50421B960FB6843F00200F860A6
:10763000B968880500F1F380BB68D90740F1C380C1
:107640002169002940F070814FEA880303EB0800AC
:1076500004EBC00C00218CF85D90CCF85810C7F8F2
:1076600008909CF83F0010F0FD0F00F050810328B7
:1076700000F06282434404EBC30898F8507087F02E
:10768000010388F85030A168206801368E4242D24A
:1076900009FA06F818EA0A0FF7D073015FFA86F8BC
:1076A0005B594FEA481B00F5A06202EB0B0713F48D
:1076B000004FBB68B4D15B070DD50423BB60FA68EB
:1076C00042F00203FB60E0E7B9688B0640F1B58049
:1076D0002020B860ACE7BA6812F0200300F0CB803D
:1076E00008EB880304EBC30B2022BA609BF83D3003
:1076F000012BCAD1F9684FF0040E41F002028BF859
:107700005DE04146FA60022700F03BFC8BF85C70BC
:10771000A1682068B9E74FF0007545615EE726680B
:10772000D6F840140291D6F840240392039820F032
:107730002E070397029B980707D50299C90700F106
:107740007281039F47F00203039302990A0715D53C
:10775000039A42F008000390029F7B0740F1548196
:10776000A169022900F0B081E068032804BF4EF649
:107770006023C6F804342046FEF7C8FF206802994B
:107780008F0603D5039B43F020020392039FC6F8A4
:10779000407417E7D5F8400420F02E07C5F8407470
:1077A0002046FEF7B7FF0121206801F073F820683A
:1077B0004FF000534361FFE62046FEF7A3FF206829
:1077C0000826466104E7B868830740F1F4804FEA71
:1077D000880E0EEB080104EBC103F86893F85DC056
:1077E00020F00201BCF1010FF96000F01981BCF139
:1077F000050F00F01581BCF1060F00F07081BCF19F
:10780000080F00F06C8193F85CC0022341462046CB
:107810006246BB60FEF782FFA168206835E7FB681F
:10782000206843F002024146FA6000F0AAFB4FF4E0
:107830000071B960A168206827E7BB68190700F1EB
:107840001081B9684B057FF5F3AE0092FA6842F0FB
:107850000203FB60414600F094FB08EB880004EB58
:10786000C00C082210214FF48063B9608CF85D20B1
:10787000BB60009ADCE6BA68520600F1DC80BB68A7
:1078800013F4007340F00481BA68D20700F140811C
:10789000BB6813F0080340F05F81BA68D20600F1BC
:1078A0007381BB681B0600F19181BA6812F4806C89
:1078B00040F09F81BB689A077FF5E7AE282000FB68
:1078C000084EF9689EF85D3021F00200012BF86047
:1078D00000F0A581032B00F0B081042B00F0C381E0
:1078E000052B00F0AB81062B00F0AB81082B00F0DC
:1078F000A881282202FB084E02239EF85C20BB6070
:1079000041462046FEF70AFFA1682068BDE6FA68F6
:107910002068009342F00201F960414600F031FB1B
:107920001020B860009BA5E64FEA880303EB08002F
:1079300004EBC00E3969DEF84800C1F31201411AA8
:10794000CEF84C1082E6C7F30A1ABAF1000F3FF4E2
:1079500054AE07F00F0909EB890204EBC20BDBF808
:10796000441000293FF449AE2846524600F020FE5C
:1079700005F5A06C0CEB4918DBF84400D8F8105062
:10798000DBF84C10BB4E504451442E40CBF8440021
:10799000CBF84C106EB1D8F8007027F0804343F05C
:1079A0000042C8F800209BF8506086F001058BF873
:1079B0005050256821E6B96808066BD4BB68D90623
:1079C000A2D54FEA880C0CEB080004EBC00E9EF821
:1079D0003F10032900F0ED80C44404EBCC080320E1
:1079E000102188F85D00B96098F83F7017F0FD0F1E
:1079F0008AD152F80B30A16823F0804040F0004754
:107A000042F80B70206840E6D6F84034206823F036
:107A10002E01C6F84014826942F000578761AEE635
:107A200083F85CC0F1E6B26922F00050B0612046F4
:107A3000FEF76CFE85E6F96808EB880E04EBCE0BCA
:107A400041F0020C0422CBF8583041468BF85D20FF
:107A5000C7F80CC000F095FA4020B860A168206813
:107A600013E60092FA6808EB880E04EBCE0142F0B0
:107A70000203FB6005224FF0100C082381F85D2003
:107A8000C7F808C04146BB6000F07BFA009ACFE51A
:107A9000FB68C6E608EB880204EBC20BF968DBF86A
:107AA0005830206841F0020E01330622C7F80CE07E
:107AB0004146CBF858308BF85D2000F062FA802008
:107AC000B860A1682068E0E5029A206802F4C02747
:107AD000B7F5802F18BF012100F0DCFE4BE60EEB5E
:107AE000080C04EBCC03986D032848D80130986546
:107AF0004FF0020C52F80B00C64404EBCE0320F00A
:107B0000804141F0004083F85CC042F80B007CE605
:107B1000FA6808EB880104EBC10B42F00202CBF8D3
:107B200058304146FA6000F02CFAC7F80890A16876
:107B300020688BF85D90A8E552F80B70009347F031
:107B4000005342F80B30414601228CF85C902046ED
:107B5000FEF7E4FD009B8DE50821B960FA6842F06C
:107B60000203FB60414608EB880700F00AFA04EBC9
:107B7000C70C05208CF85D00A168206885E5002110
:107B800099654FF0040CB5E7FA6808EB880104EB3F
:107B9000C10B42F00202CBF858304146FA6000F0C7
:107BA000F0F9032010238BF85D00A1682068BB600A
:107BB0006BE5CDE9002CFA68206842F00203FB6017
:107BC000414600F0DEF9DDE9002C05E7FB6843F0F3
:107BD0000201F960414600F0D4F9282000FB084C6E
:107BE00080224FF006088CF85D80A1682068BA609A
:107BF0004BE5F96841F00202FA60414600F0C1F934
:107C0000282000FB084810214FF480624FF0080B39
:107C1000B9602068BA60A16888F85DB035E59EF863
:107C20003F108EF85C3002297FF463AE9EF851005D
:107C300080F0010C8EF851C05BE602238EF85C30B8
:107C400057E6282202FB084EDEF85830591C032B59
:107C5000CEF85810F1D900204FF0040BCEF85800A0
:107C60008EF85CB045E602228EF83DC08EF85C20AE
:107C70003FE600BF0000F81F38B590F89032012BA6
:107C80000ED00446012580F89052006800F0C6FB33
:107C90002946206800F035FE002084F8900238BDA7
:107CA000022038BD90F89032012B0BD010B504465D
:107CB000012084F89002206800F07EFA002084F809
:107CC000900210BD02207047006800F000BE00BFA7
:107CD00001EB810100EBC10090F85C00704700BF30
:107CE000006800F039BE00BF006800F02CBE00BF85
:107CF00080B58AB002AFF860B9601346FB7100230B
:107D00007B7700237B830023FB834FF480733B83CB
:107D100000237B61FB68B3F1A04F2AD0BB681B79BD
:107D2000002B26D1FB79002B0BD1BB685B79012B93
:107D300007D1BB685B781946F86800F003FA0023A6
:107D400009E1FB79012B14D1BB685B785A01FB6810
:107D5000134403F5A063DB68BA6852785101FA68EE
:107D60000A4402F5A06223F06003D360BB680022DE
:107D70005A71BB681B69002B19D0BB681B69BA68B4
:107D800012891344013BBA681289B3FBF2F3FB83F7
:107D9000FA8B3B8B9A420CD93B8BFB83FB8BBA68EB
:107DA000128902FB03F31A46BB681A6101E0012342
:107DB000FB83BB68DB78002B07D0FB8BBA6812898A
:107DC00002FB03F31A46BB681A61BB681B69C3F365
:107DD0001202FB8BDB041946614B0B401A43BB6854
:107DE0009B7A5B0703F0C043B96849784801F9689A
:107DF000014401F5A06113430B61FB79002B0AD00C
:107E0000BB68D968BB685B785A01FB68134403F50B
:107E1000A0630A465A61FB6803F580639B6803F020
:107E20000103002B0CBF01230023DBB27B77BB686F
:107E30005B785A01FB68134403F5A0631B68BA68BA
:107E400052785101FA680A4402F5A06223F0005307
:107E50001360BB685B785A01FB68134403F5A063A9
:107E60001B687A7F52071046BA6852785101FA6847
:107E70000A4402F5A06203431360BB685B785A01B1
:107E8000FB68134403F5A0631B687B617B6923F0E7
:107E900080437B617B6943F000437B61BB685B7817
:107EA0005A01FB68134403F5A0631A467B6913600B
:107EB000FB79002B4ED1BB68DB78002B4AD1BB6825
:107EC0001B69002B46D0BB68DB79032B30D801A29D
:107ED00052F823F0E57E0008097F0008E57E0008DF
:107EE000097F0008BB681B6903339B087B837A8B7F
:107EF000FB68DB6A9BB29A421CD9FB689B6943F022
:107F00002002FB689A6115E0BB681B6903339B087C
:107F10007B837A8BFB6803F580631B699BB29A4273
:107F20000AD9FB689B6943F08062FB689A6103E0B1
:107F300000BF02E000BF00E000BFBB68D968BB68BB
:107F40005A78BB681B6998B2002300930346F8680F
:107F500000F0D6FA002318462037BD4680BD00BF8A
:107F60000000F81F80B483B000AF78607B6803F531
:107F700080635B699BB218460C37BD465DF8047B95
:107F8000704780B485B000AF78600B46FB7000236B
:107F9000FB60FB785A017B68134403F5A0631B6800
:107FA0009B0C03F00303002B0BD0FB785A017B687A
:107FB000134403F5A0631B689B0C03F00303022B1F
:107FC0005CD1FB785A017B68134403F5A0631B68FE
:107FD000FA7851017A680A4402F5A06243F08043BE
:107FE00013607B68DB6A03F47F03002B33D1FB78DB
:107FF0005A017B68134403F5A0631B68FA785101AA
:108000007A680A4402F5A06223F000431360FB780B
:108010005A017B68134403F5A0631B68FA78510189
:108020007A680A4402F5A06243F000431360FB68DB
:108030000133FB60FB68B3F57A7F1DD8FB785A01EA
:108040007B68134403F5A0631B6803F00043B3F19E
:10805000004FECD06FE0FB785A017B68134403F5C6
:10806000A0631B68FA7851017A680A4402F5A0629D
:1080700043F0004313605EE000BF5CE0FB785A0110
:108080007B68134403F5A0631B68FA7851017A6892
:108090000A4402F5A06243F0804313607B6803F555
:1080A00080631B699BB2002B33D1FB785A017B683C
:1080B000134403F5A0631B68FA7851017A680A44F7
:1080C00002F5A06223F000431360FB785A017B683D
:1080D000134403F5A0631B68FA7851017A680A44D7
:1080E00002F5A06243F000431360FB680133FB60BC
:1080F000FB68B3F57A7F1DD8FB785A017B6813447F
:1081000003F5A0631B6803F00043B3F1004FECD00C
:1081100011E0FB785A017B68134403F5A0631B68E8
:10812000FA7851017A680A4402F5A06243F00043EC
:10813000136000E000BF002318461437BD465DF809
:10814000047B704780B485B000AF78600B46FB704D
:108150000123FB730023BB60FB7BDB041A46154B3A
:108160001340FA7851017A680A4402F5A06243F09C
:1081700000431361FB785A017B68134403F5A06345
:108180001B68BB60BB6823F08043BB60BB6843F0E7
:108190000043BB60FB785A017B68134403F5A0637E
:1081A0001A46BB681360002318461437BD465DF8B5
:1081B000047B70470000F81F80B586B000AF786080
:1081C00000233B61786800F030F91021786800F0F6
:1081D0004DF9786800F070F90023FB751FE0FB7D16
:1081E0005A017B68134403F5A0631B68FB60FB68BE
:1081F00043F08043FB60FB6823F00043FB60FB68B7
:1082000023F40043FB60FB7D5A017B68134403F5B4
:10821000A0631A46FB681360FB7D0133FB75FB7D91
:108220000F2BDCD90023FB7534E0FB7D5A017B6802
:10823000134403F5A0631B68FB60FB6843F08043B5
:10824000FB60FB6843F00043FB60FB6823F40043E2
:10825000FB60FB7D5A017B68134403F5A0631A465B
:10826000FB6813603B6901333B613B69B3F57A7F7F
:108270000CD8FB7D5A017B68134403F5A0631B688F
:1082800003F00043B3F1004FECD000E000BFFB7DF2
:108290000133FB75FB7D0F2BC7D97B6803F580632A
:1082A0001A464FF0FF3353617B684FF0FF325A613B
:1082B000786800F0B3F8002318461837BD4680BD33
:1082C00084B030B4089D03AC012D84E80E003BD18E
:1082D000816B0F9A21F480358563C46824F4840C83
:1082E0002CF04003C360C168012A21F44015C56029
:1082F00000F08D80484B0169002948DB0569002D9D
:1083000045DB0269002A42DB0469002C3FDB01697E
:1083100000293CDB0569002D39DB0269002A36DBC8
:108320000469002C33DB083BE5D1069B012B07D108
:10833000826842F006048460816841F0200585600F
:1083400030BC002004B07047C268334B42F040019B
:10835000C1600569002D3ADB0469002C37DB026936
:10836000002A34DB0169002931DB0569002D2EDB91
:108370000469002C2BDB0269002A28DB0169002933
:1083800025DB083BE5D14FF480338363CDE70169FA
:10839000214B41F0010505610269D407C5D5046987
:1083A000E507C2D50169CD07BFD50569EC07BCD586
:1083B0000269D107B9D50469E207B6D50169CD07CD
:1083C000B3D50569EC07B0D5083BE5D1ADE7056944
:1083D000114B45F0010404610269D207D3D501694C
:1083E000C907D0D50569E907CDD50469E207CAD523
:1083F0000269D507C7D50169CC07C4D50569E90766
:10840000C1D50469E207BED5083BE5D1BBE7C26828
:1084100042F48014C4606DE7400D03000246002062
:10842000936843F001019160704702460020936811
:1084300023F001019160704708B5C368012923F05A
:10844000C042C26009D019B9C16841F08043C3601D
:10845000322001F0B5F9002008BDC26842F0005199
:10846000C160322001F0ACF9002008BD890141F063
:108470002002104B026101698A0618D50269910633
:1084800015D50169890612D5026992060FD50169D1
:1084900089060CD50269920609D50169890606D5B7
:1084A0000269920603D5083BE5D1032070470020FE
:1084B000704700BF400D0300102303610F4B02699A
:1084C000D20618D50169C90615D50269D10612D59B
:1084D0000169CA060FD50269D1060CD50169CA0621
:1084E00009D50269D10606D50169CA0603D5083B3C
:1084F000E5D1032070470020704700BF400D030006
:1085000010B49DF80440002C4ED103339B084BD08F
:1085100001EB8304631A043B9B08013300F5805090
:1085200013F0070300EB023222D0012B1BD0022BE9
:1085300016D0032B11D0042B0CD0052B07D0062B03
:1085400002D051F8040B106051F8043B136051F84D
:10855000040B106051F8043B136051F8040B1060D9
:1085600051F8043B136051F8040B10608C421BD08F
:108570008C4620315CF8043B136051F81C0C1060F1
:10858000DCF80430136051F8140C106051F8103C02
:10859000136051F80C0C106051F8083C136051F84E
:1085A000040C10608C42E3D100205DF8044B70474E
:1085B0000332920858D0034601EB8200421A043A73
:1085C0009208013203F5805C12F0070325D0012BDD
:1085D0001DD0022B17D0032B11D0042B0BD0052B51
:1085E00005D0062B3BD1DCF8003041F8043BDCF829
:1085F000002041F8042BDCF8003041F8043BDCF8A3
:10860000002041F8042BDCF8003041F8043BDCF892
:10861000002041F8042B884220D010B40C46DCF82E
:10862000003044F8043BDCF800204A60DCF80030FD
:108630006360DCF80040CC60DCF800200A61DCF804
:1086400000304B61DCF800408C61DCF80020CA612E
:1086500020318842E2D15DF8044B70477047DCF866
:10866000002041F8042BBEE7084670474269806944
:1086700010407047406900F00100704784B070B549
:1086800004460020C4F8000EA56B82B025F48026B5
:10869000A6630DF11C0CA06B8CE80E0020F40021E9
:1086A000A163A36BDDE9085243F40016A663032A15
:1086B000D4F8000400F0CB8020F00401C4F80014CA
:1086C0004FF484626D4B22612669B00616D520698D
:1086D000860613D52169890610D5226992060DD523
:1086E0002669B6060AD52069800607D5216989065C
:1086F00004D52269920601D5083BE5D110232361F8
:108700005E4B2669F20616D52069C10613D521698C
:10871000CE0610D52269D0060DD52669F1060AD5F8
:108720002069C20607D52169CE0604D52269D00684
:1087300001D5083BE5D1002D55D0002215F00706E4
:10874000104604F5A0634FF0FF3127D0012E1ED054
:10875000022E18D0032E12D0042E0CD0052E06D0D7
:10876000062E40F0858099600132D86020339960F0
:108770000132D860203399600132D860203399608B
:108780000132D860203399600132D8602033013241
:10879000AA429960D86003F1200324D003F1400E6F
:1087A00003F1E00C0832AA429960D8609962D8625D
:1087B000CEF8081003F58073CEF80C0043F8981C2F
:1087C00043F8940C43F8781C43F8740C43F8581C95
:1087D00043F8540C43F8381C43F8340C43F8181C85
:1087E000CCF80C00DAD1D4F840540195019820F06F
:1087F0002E010191019EF30423D5C820019B002581
:1088000000F0DEFF4FF0FF30B4F1A04FA5616061D2
:1088100026D04FF400711A4E1A4A6162A662C4F85B
:1088200000210A9919B9A66946F01002A261A5694A
:1088300015482843A061002002B0BDE8704004B094
:108840007047019A42F48053C4F84034D5E7B4F13C
:10885000A04F3FF431AF40F00403C4F800342FE7D9
:1088600080250A480A4B6562A062C4F80031D8E747
:108870009960DA60012204F5A46374E7400D0300F7
:10888000000200010003E000080020A38000600057
:10889000E0004000D0F8003423F00302C0F80024C8
:1088A000D0F8002401F0030313430129C0F8003479
:1088B00000F5806006D0022904BF41F27073436066
:1088C000002070474BF6803141600020704710B5A2
:1088D000044682B0D4F840340193019921F02E026D
:1088E0000192019B43F480710A20C4F8401400F007
:1088F00067FF019820F480720020C4F8402402B081
:1089000010BD82B0D0F840340193019A22F02E03BA
:108910000193019A019B12F4805F01D101290AD0D1
:10892000DB0405D521B9019921F48052C0F8402417
:10893000002002B0704743F48053C0F84034019BDC
:10894000002002B0704782B0D0F840340193019803
:10895000C0F3414002B0704700F58060816888B282
:1089600070472DE9704700F5A06505EB41159DF8AE
:1089700020609DF81CC0BDF824404FF0FF3EC5F8B4
:1089800008E04FFA82FE032E13D8DFE806F002500B
:10899000024240F29D49BEF1000FC5F80C903FDB4A
:1089A000B0F1A04F05D0D5F80CA04AF06008C5F88A
:1089B0000C809B05D20203F0FE5302F4F042D0F883
:1089C00018841A43012303FA01F141EA0801C4F3B0
:1089D0000A03C0F8181413430EF4004EB404BCF19B
:1089E000020F826943EA0E0304F440240CBF4FF4E3
:1089F0000031002123430B43032E42F000718161BB
:108A00002B6003D1286840F000562E600020BDE89E
:108A1000708740F29D68BEF1000FC5F80C80C8DA7F
:108A2000D5F80C9049F4807AC5F80CA0C1E740F263
:108A30002529BEF1000FC5F80C90BADAD5F80CA0C4
:108A40004AF4C078C5F80C80B3E7000002681169E9
:108A50002DE9F843C568836821F4405604462E4347
:108A600000691661D7686569A6690343E06927F460
:108A700016482B4328F00C0103430B43D360536982
:108A80009F4D23F440773743B0F5004F576100F016
:108A90009B80AA425AD005F58060824256D000F0F1
:108AA000A1FC984F626800EB8009930009EB8901F3
:108AB000B1FBF3F6A7FB06256809050100F092FC5F
:108AC000626800EB800C0CEB8C019300B1FBF3F8B7
:108AD00000F088FC666800EB8009B20009EB8900B1
:108AE000B0FBF2F1A7FB01235E094FF0640909FB1B
:108AF000168002013232A7FB02214B0903F0F00677
:108B000000F070FC626800EB800C0CEB8C089000AD
:108B1000B8FBF0F800F066FCD4E900E400EB80015B
:108B2000A30001EB8102B2FBF3FCA7FB0C3044096C
:108B300009FB14810A013232A7FB0217C7F3431362
:108B400033432B44CEF80830BDE8F88300F05CFCDA
:108B50006C4F656800EB800909EB8901AB00B1FB44
:108B6000F3F6A7FB06204209150100F04DFC6168F1
:108B700000EB800C0CEB8C038E00B3FBF6F800F0DE
:108B800043FC626800EB8009910009EB8900B0FBAF
:108B9000F1FCA7FB0C235E094FF0640909FB168268
:108BA00010013230A7FB00214B0903F0F00600F062
:108BB0002BFC626800EB800808EB880C9000BCFB83
:108BC000F0F800F021FCA7E7AA425AD005F580652D
:108BD000AA4256D000F006FC4A4F666800EB8009B6
:108BE00009EB89087000B8FBF0F1A7FB01235A09D3
:108BF000160100F0F7FB656800EB800C0CEB8C09AC
:108C00006800B9FBF0F800F0EDFB616800EB800351
:108C100003EB83024D00B2FBF5F0A7FB00214B09EB
:108C20004FF0640909FB1382D5003235A7FB0520FC
:108C3000010901F4F87500F0D5FB636800EB800CC6
:108C40000CEB8C025800B2FBF0F800F0CBFBD4E93F
:108C500000E400EB800101EB81026300B2FBF3F062
:108C6000A7FB0014610909FB1182D3003233A7FB73
:108C70000317C7F3421030442844CEF80800BDE87B
:108C8000F88300F0C1FB1F4F666800EB800909EB19
:108C900089017500B1FBF5F3A7FB0320420916011A
:108CA00000F0B2FB616800EB800C0CEB8C034D0014
:108CB000B3FBF5F800F0A8FB626800EB80095100F7
:108CC00009EB8900B0FBF1FCA7FB0C235D094FF019
:108CD000640909FB1582D0003230A7FB00210B0983
:108CE00003F4F87500F090FB626800EB800808EB75
:108CF000880C5000BCFBF0F800F086FBA7E700BF33
:108D0000001001401F85EB5168B338B590F8393039
:108D1000044603F0FF020BB32168242084F83900D5
:108D2000CD6825F40053CB602046FFF78FFE206806
:108D3000026922F490410161456925F02A034361EB
:108D4000C26800254FF0200C42F40053C360E56375
:108D5000284684F839C084F83AC038BD80F83820F5
:108D6000FDF74AFED8E70120704700BF2DE9F0412A
:108D70000D4690F83910202978D1002D44D0904626
:108D8000002A41D01F4690F83830012B04466DD0A0
:108D9000012200202126E06384F8382084F839601D
:108DA00000F008FD2268A4F824800646A4F8268076
:108DB000B4F826C01FFA8CF1C9B1B4F826E0A16856
:108DC0000EF1FF331FFA83F8B1F5805FA4F8268017
:108DD0001DD0781C29D110680306FCD515F8011B9D
:108DE0005160B4F826C01FFA8CF10029E5D17D1C32
:108DF00054D117687B06FCD52026002084F8396002
:108E000084F83800BDE8F0810120BDE8F0817B1CCA
:108E10001CD110680106FCD5B5F800E02169CEF33D
:108E20000803536001BB0235C2E710680106D5D4C0
:108E300007B300F0BFFC811B8F4222681AD313686E
:108E40001B06F6D515F8011B5160CAE71368180612
:108E5000E2D47FB100F0AEFC801B8742226809D3C8
:108E600011680906F6D5D7E70135A1E70220BDE86C
:108E7000F0812268D56825F4D076D66057694FF026
:108E8000200C27F0010300215361032084F839C02E
:108E900084F8381084F83AC0BDE8F0811568690696
:108EA000AAD4002FE6D000F085FC831B9F42E0D3BC
:108EB000206802685006F6D59EE700BF002800F043
:108EC00061812DE9F0410368DD0782B004462FD5AA
:108ED000AD498A6802F00C00042800F0EC808D682F
:108EE00005F00C06082E00F0E2806368B3F5803FC1
:108EF00000F0EB80B3F5A02F00F05081A24D29685F
:108F000021F480322A60286820F480262E60002B0D
:108F100040F0E08000F04EFC064605E000F04AFC20
:108F2000831B642B00F200812F68BB03F6D42368F7
:108F30009F0728D5944FBD6815F00C0F00F09A805C
:108F4000B86800F00C06082E00F09080E368002B53
:108F500000F007818D498C4D01230B6000F02AFC45
:108F6000074605E000F026FCC31B022B00F2DC8064
:108F70002A689007F6D52F68266927F0F80040EA9E
:108F8000C601296023681A075CD458073BD57E4880
:108F9000056C15F0805640F088800196016C41F018
:108FA00080570764026C02F080530193019B0126F5
:108FB000774D2868C10540F1A780A368012B00F018
:108FC000B780052B00F026816F4D286F20F001013E
:108FD00029672F6F27F004022A67002B40F0AD802D
:108FE00000F0E8FB41F28837804606E000F0E2FB43
:108FF000A0EB080CBC4500F297802B6F9807F5D4C6
:10900000002E40F0D580A169C1B15F4DAF6807F077
:109010000C02082A35D05F4E00230229336000F08D
:10902000CD8000F0C7FB2C46054604E000F0C2FBF3
:10903000411B022978D820688301F7D4002002B0B0
:10904000BDE8F081636903B3534F4F4D01223A608D
:1090500000F0B0FB064604E000F0ACFB821B022AE5
:1090600062D86B6F9B07F7D523688EE779684E024D
:109070003FF56CAF444A1668B50739D5E06801285A
:1090800036D0012002B0BDE8F081434E3E4D336042
:1090900000F090FB064604E000F08CFB811B0229E7
:1090A00042D8686F8707F7D4DEE7002680E74F686D
:1090B00078027FF51AAF344E316889037FF538AFF7
:1090C0006268002A7FF434AFDBE72F4E336843F445
:1090D0008031316000F06EFB2B4F054604E000F05C
:1090E00069FB401B64281FD83A689203F7D51EE736
:1090F000254925690F6827F0F80848EAC5020A6083
:109100001A077FF542AF9DE7296841F480772F6009
:1091100000F050FB07462A68D2053FF54EAF00F03D
:1091200049FBC01B0228F6D9032002B0BDE8F0813C
:10913000154F386F40F00101396700F03BFB124DCD
:10914000804641F2883705E000F034FBA0EB080CC4
:10915000BC45E9D82A6F9307F6D5002E3FF453AFEC
:1091600026E00A4A084D136000F024FB064604E09E
:1091700000F020FB801B0228D6D82F68B907F7D44F
:10918000236800E701207047003802400000474292
:109190000070004060004742800E474222490A6842
:1091A00042F4802008600F6847F480350D6091E735
:1091B0001D4E336C23F08050306424E700F0FAFA3F
:1091C000064604E000F0F6FA831B022BACD82F68A9
:1091D000B901F7D4D4E90736D4E909E2E06A3343A8
:1091E00043EA8E14510844EA00674B1E0F4E0E4CA2
:1091F00047EA034001226860326000F0DBFA05466E
:1092000004E000F0D7FA471B022F8DD821688A01AD
:10921000F7D513E70448016F41F004020267036FBA
:1092200043F00105056788E70038024060004742C7
:10923000174908B58B6803F00C0004281BD00828D8
:1092400017D14A684B6813F4800302F03F0214D12F
:1092500049681048C1F3881CACFB0001FCF7D4FD41
:109260000B4A5368C3F3014101314A00B0FBF2F0ED
:1092700008BD084808BD084808BD4B680649C3F347
:109280008810A0FB01010023FCF7BEFDE8E700BF4A
:10929000003802400024F40000127A0060B14A4A0B
:1092A000136803F00F0C8C4508D2CBB21370126810
:1092B00002F00F0C8C4501D0012070472DE9F041E0
:1092C0000668B40714D5720704D5404CA56845F468
:1092D000E057A760370704D53C4B9A6842F46044D6
:1092E0009C603A4F8568BB6823F0F0022A43BA605D
:1092F000F60780460C4622D54668012E5CD0B01E8B
:10930000324901280F6854D9B90725D52F4DAA68CD
:1093100022F003003043A86000F04CFA41F2883696
:10932000074604E000F046FAC01BB04249D8A968DD
:10933000D8F8042001F00C0EBEEB820FF2D1224EC1
:10934000376807F00F05A54209D9E3B233703068DA
:1093500000F00F01A14202D00120BDE8F081D8F851
:109360000040620707D5194ED8F80C70B26822F495
:10937000E0553D43B560230708D51448D8F81010D0
:10938000836823F4604444EAC10686600F4F104DA1
:10939000FFF74EFFB9680F4AC1F3031815F808C06C
:1093A00020FA0CF30020136000F0BAF90020BDE8A9
:1093B000F081B801AAD4CFE7044D2B689D03A5D452
:1093C000CAE70320C9E700BF003C02400038024062
:1093D00064B6000864000020014B1868704700BFA5
:1093E00064000020054B064A98680649C0F3822CA9
:1093F000086812F80C30D840704700BF00380240AF
:1094000074B6000864000020054B064A98680649B7
:10941000C0F3423C086812F80C30D840704700BFD7
:109420000038024074B60008640000202DE9F04FB7
:10943000002383B0D1F800E0DFF8CCC14FF0010881
:1094400003E00133102B00F0888008FA03F20EEAE3
:109450000205AA42F5D14E6826F0100ABAF1020FB1
:109460007ED04FEA4309032404FA09F7D0F800B08C
:10947000FC4306F0030704EA0B0B07FA09F70AF1AD
:10948000FF3A47EA0B07BAF1010F076040F28E80FE
:10949000C7688A683C4002FA09F72743F200C760B0
:1094A000CFD5544F002401947A6C42F480447C64FC
:1094B0007A6C23F0030909F1804A02F480440AF52A
:1094C0009C3B03F003070194BC004B4F019ADBF86F
:1094D00008900F22A240B84229EA020A14D007F5E8
:1094E0008062904275D0454FB84277D0444FB84221
:1094F0007AD0444FB8420CBF4FF004094FF007092F
:1095000009FA04F44AEA040ACBF808A0DCF80020BF
:10951000F7036FEA050454BF22402A43CCF8002029
:10952000DCF80420B70354BF22402A43CCF80420BF
:10953000DCF80820F70254BF22402A43CCF8082068
:10954000DCF80C70B60203F1010354BF27402F432F
:10955000102BCCF80C707FF478AF03B0BDE8F08F1F
:10956000DC0800EB840903F00707D9F82040BF00AE
:109570004FF00F0B0BFA07FA24EA0A0B0C69BC40F8
:1095800044EA0B07C9F820704FF0030B4FEA430978
:10959000D0F800A00BFA09F406F00307E4430AEA46
:1095A000040B07FA09FA4AEA0B070760876807EA1B
:1095B000040BCF6807FA09FA4AEA0B078760D0F86C
:1095C00004B0C6F300172BEA02029F40174347601E
:1095D0005EE708FA04F94AEA090A95E7022202FA64
:1095E00004F44AEA040A8FE7032202FA04F94AEA79
:1095F000090A89E7003802400000024000080240E2
:10960000000C024000100240003C01400369194276
:1096100014BF01200020704702B90904816170471E
:10962000074AD3684FF6FF0100020B4000F4E060E8
:10963000184340F0BF6343F40031D160704700BF6E
:1096400000ED00E0184B70B4DC68C4F30224C4F1F0
:109650000705042D04F1040628BF0425062E18D999
:10966000033C4FF0FF33A34022EA03024FF0FF36E2
:10967000AE4021EA0601A14011430D010028ECB2E1
:109680000ADB00F1604000F5614C8CF8004370BCCF
:10969000704700221446E9E7044A00F00F031A4419
:1096A000147670BC704700BF00ED00E0FCEC00E0F9
:1096B00000F01F0101234009024A8B4042F820308C
:1096C000704700BF00E100E00138B0F1807F0FD2A9
:1096D00010B4084B084C58604FF0F00C84F823C0CD
:1096E0000022072110469A6019605DF8044B70470C
:1096F0000120704710E000E000ED00E0044A13682C
:1097000004280CBF43F0040323F0040313607047E4
:1097100010E000E0704700BF08B5FFF7FBFF08BD91
:1097200038B50E4A0E4B11781C6805464FF47A7016
:10973000B0FBF1F2B4FBF2F0FFF7C6FF08B90F2D52
:1097400001D9012038BD0446024629464FF0FF30BA
:10975000FFF778FF034B20461D6038BD69000020ED
:10976000640000206C00002008B50B4B1A6842F41E
:1097700000701860196841F480621A60186840F43B
:10978000807119600320FFF74BFF0020FFF7C8FF2F
:10979000FDF7E8F8002008BD003C0240034A044BF6
:1097A0001168187808441060704700BF88080020CE
:1097B00069000020014B1868704700BF880800202E
:1097C00038B50446FFF7F6FF631C054602D0044B8C
:1097D00018780444FFF7EEFF411BA142FAD338BDCD
:1097E0006900002048B370B50025044680F8302495
:1097F000C0E9FA553C220E4600F57C702946FAF77E
:109800005DFD29464FF4007204F58E70FAF756FD9F
:10981000012340214FF4807225706570C4F82C54E8
:10982000A3702383A171A4F81C230EB1C4F838647B
:109830002046FCF775FF002070BD0220704700BF76
:1098400049B1D0F8EC3333B90122C0F8E413C0F8C1
:10985000EC231846704702231846704738B590F835
:1098600036338B423BD905460C4685F81F131D48FD
:10987000FAF746FE23461C4A1C491D48FAF740FEEB
:109880001C48FAF73DFE1748FAF73AFE2A2101FB79
:109890000454154A94F8413314491748FAF730FE36
:1098A0001448FAF72DFE0F48FAF72AFE94F84233CF
:1098B0000D4A0E491148FAF723FE0E48FAF720FE2A
:1098C0000848FAF71DFE94F84333074A07490C4845
:1098D000FAF716FE0748FAF713FE002038BD0220FB
:1098E00038BD00BF88B40008B4BA0008DCB900086D
:1098F00018BA0008D8B4000848BA00086CBA0008C2
:1099000090BA0008FF2B00F09C80FF2A3BD0FF2973
:1099100014D010B490F841438C4248D090F86BC3F7
:109920008C454FD090F895438C4255D090F8BFC3EA
:109930008C455BD0FF205DF8044B704790F84213D4
:10994000914263D090F86C1391426AD090F89613CC
:10995000914271D090F8C01391420DD0FF20704712
:1099600090F843239A424FD090F86D13994256D005
:1099700090F897C39C455DD090F8C1039842EDD113
:109980000323D8B27047FF29EAD090F841238A42D6
:1099900036D090F86B238A423DD090F895238A42C6
:1099A00044D090F8BF238A42E6D0FF20704790F859
:1099B00042C39445B2D190F843439C42AED10020BB
:1099C000C0B2B8E790F86C439442ABD190F86DC345
:1099D0009C45A7D10120F3E790F896C39445A5D103
:1099E00090F897439C42A1D10220E9E790F8C01378
:1099F00091429FD190F8C1239A429BD10320DFE787
:109A000090F843C39C45C4D10023BAE790F843C300
:109A10009C4597D1F8E790F86DC39C45BDD10123D3
:109A2000AFE790F86DC39C4590D1F8E790F897C3E5
:109A30009C45B6D10223A4E790F897C39C4589D1F1
:109A4000F8E7FF2A18D0FF2939D090F841C38C4598
:109A500026D090F86BC38C452CD090F895C38C45DC
:109A600023D090F8BFC38C457FF478AF90F8C00343
:109A700090427FF473AF83E7FF29C5D090F841335C
:109A80008B42C1D090F86B238A42C8D090F895C31E
:109A90008C45CFD090F8BF0388427FF45FAF6FE76B
:109AA00090F842339342D4D1AEE790F89633934284
:109AB000D7D1BFE790F86C339342CED1AFE790F89F
:109AC00042139142A0D090F86C339342A7D090F803
:109AD00096139142CAD1ADE710B50446FCF774FE67
:109AE00020460121FCF7EAFE002010BD30B587B00A
:109AF00002238DF81730044600780A2820D8DFE8C2
